:100000000C943E000C9448000C9448000C9448005A
:100010000C9448000C9448000C9448000C94480040
:100020000C9448000C9448000C9448000C94480030
:100030000C9448000C9448000C9448000C94480020
:100040000C9448000C9448000C9448000C94480010
:100050000C9448000C9448000C9448000C94480000
:100060000C9448000C9448000C9448000C944800F0
:100070000C9448000C9448000C94480011241FBEB6
:10008000CFEFD8E0DEBFCDBF0E944A000C94AA009B
:100090000C9400008FEF81B984B987B91AB880E059
:1000A00090E0DC0120E031E042E04A9B25C0EFE334
:1000B000FCE93197F1F700C000004A9B06C021110E
:1000C00004C00196A11DB11D21E083309105A10559
:1000D000B105B9F198F481309105A105B105F1F0B0
:1000E00082309105A105B10551F142B9DECF82E020
:1000F00090E0A0E0B0E0D9CF20E0E7CF84309105D8
:10010000A105B10529F185309105A105B10569F772
:100110004A9915C080E090E0DC01C7CF4A9BE7CF49
:1001200042B9EFE1FEE43197F1F700C0000032B9C7
:10013000EFE1FEE43197F1F700C00000B6CF32B92D
:10014000B4CF4A99D2CF84E090E0A0E0B0E0ADCF48
:0801500012B8ABCFF894FFCF09
:00000001FF
